{
  "_format": "hh-sol-artifact-1",
  "contractName": "Lock",
  "sourceName": "contracts/Lock.sol",
  "abi": [
    {
      "inputs": [
        {
          "internalType": "string",
          "name": "newval",
          "type": "string"
        }
      ],
      "name": "changeMail",
      "outputs": [],
      "stateMutability": "payable",
      "type": "function"
    },
    {
      "inputs": [
        {
          "internalType": "string",
          "name": "newval",
          "type": "string"
        }
      ],
      "name": "changeSolanaAdd",
      "outputs": [],
      "stateMutability": "payable",
      "type": "function"
    },
    {
      "inputs": [],
      "name": "returnUserData",
      "outputs": [
        {
          "components": [
            {
              "internalType": "string",
              "name": "mail",
              "type": "string"
            },
            {
              "internalType": "string",
              "name": "solanaAdd",
              "type": "string"
            }
          ],
          "internalType": "struct Lock.User",
          "name": "",
          "type": "tuple"
        }
      ],
      "stateMutability": "view",
      "type": "function"
    }
  ],
  "bytecode": "0x608060405234801561001057600080fd5b50610487806100206000396000f3fe6080604052600436106100345760003560e01c8063036f65c214610039578063348d49ad1461004e578063d1faeb4d14610061575b600080fd5b61004c6100473660046102d6565b61008c565b005b61004c61005c3660046102d6565b6100ae565b34801561006d57600080fd5b506100766100d2565b60405161008391906103d4565b60405180910390f35b3360009081526020818152604090912082516100aa92840190610227565b5050565b3360009081526020818152604090912082516100aa92600190920191840190610227565b60408051808201909152606080825260208201523360009081526020819052604090819020815180830190925280548290829061010e90610416565b80601f016020809104026020016040519081016040528092919081815260200182805461013a90610416565b80156101875780601f1061015c57610100808354040283529160200191610187565b820191906000526020600020905b81548152906001019060200180831161016a57829003601f168201915b505050505081526020016001820180546101a090610416565b80601f01602080910402602001604051908101604052809291908181526020018280546101cc90610416565b80156102195780601f106101ee57610100808354040283529160200191610219565b820191906000526020600020905b8154815290600101906020018083116101fc57829003601f168201915b505050505081525050905090565b82805461023390610416565b90600052602060002090601f016020900481019282610255576000855561029b565b82601f1061026e57805160ff191683800117855561029b565b8280016001018555821561029b579182015b8281111561029b578251825591602001919060010190610280565b506102a79291506102ab565b5090565b5b808211156102a757600081556001016102ac565b634e487b7160e01b600052604160045260246000fd5b6000602082840312156102e857600080fd5b813567ffffffffffffffff8082111561030057600080fd5b818401915084601f83011261031457600080fd5b813581811115610326576103266102c0565b604051601f8201601f19908116603f0116810190838211818310171561034e5761034e6102c0565b8160405282815287602084870101111561036757600080fd5b826020860160208301376000928101602001929092525095945050505050565b6000815180845260005b818110156103ad57602081850181015186830182015201610391565b818111156103bf576000602083870101525b50601f01601f19169290920160200192915050565b6020815260008251604060208401526103f06060840182610387565b90506020840151601f1984830301604085015261040d8282610387565b95945050505050565b600181811c9082168061042a57607f821691505b6020821081141561044b57634e487b7160e01b600052602260045260246000fd5b5091905056fea26469706673582212206da92395f9ed24ae8326e6b2ab822a4bf1136f0ecd3fff2476f85a08e233785864736f6c63430008090033",
  "linkReferences": {},
  "deployedLinkReferences": {}
}